{
    "contractName": "NFTChallengeCore",
    "abi": [
        {
            "inputs": [
                {
                    "internalType": "address",
                    "name": "contract_address",
                    "type": "address"
                },
                {
                    "internalType": "address",
                    "name": "user",
                    "type": "address"
                },
                {
                    "internalType": "uint256",
                    "name": "tokenId",
                    "type": "uint256"
                }
            ],
            "name": "NFTExist",
            "outputs": [
                {
                    "internalType": "bool",
                    "name": "",
                    "type": "bool"
                }
            ],
            "stateMutability": "nonpayable",
            "type": "function"
        }
    ],
    "bytecode": "608060405234801561001057600080fd5b506102cb806100206000396000f3fe608060405234801561001057600080fd5b506004361061002b5760003560e01c8063c1aea16214610030575b600080fd5b61004361003e36600461023c565b610057565b604051901515815260200160405180910390f35b600060016001600160a01b0385163b1515146100ba5760405162461bcd60e51b815260206004820181905260248201527f636f6e7472616374206164647265737320646f6573206e6f742065786973742160448201526064015b60405180910390fd5b6040516331a9108f60e11b8152600481018390526001600160a01b038085169190861690636352211e9060240160206040518083038186803b1580156100ff57600080fd5b505afa158015610113573d6000803e3d6000fd5b505050506040513d601f19601f820116820180604052508101906101379190610218565b6001600160a01b03161461017c5760405162461bcd60e51b815260206004820152600c60248201526b24b73b30b634b2103ab9b2b960a11b60448201526064016100b1565b6001600160a01b0384811660009081526020818152604080832086845290915290205416156101de5760405162461bcd60e51b815260206004820152600e60248201526d20746f6b656e496420757365642160901b60448201526064016100b1565b506001600160a01b039283166000908152602081815260408083209383529290522080546001600160a01b03191691909216179055600190565b60006020828403121561022a57600080fd5b81516102358161027d565b9392505050565b60008060006060848603121561025157600080fd5b833561025c8161027d565b9250602084013561026c8161027d565b929592945050506040919091013590565b6001600160a01b038116811461029257600080fd5b5056fea264697066735822122071d26ed3dce720868e2e952051bfa5f3e225b36996c10b021e30820c11d0573d64736f6c63430008070033",
    "sourcePath": "/Users/leo/blockchain/NFTChallenge/contracts/NFTChallengeCore.sol",
    "compiler": {
        "name": "solc",
        "version": "0.8.7+commit.e28d00a7"
    },
    "functionHashes": {
        "NFTExist(address,address,uint256)": "c1aea162"
    },
    "gasEstimates": {
        "creation": {
            "codeDepositCost": "143000",
            "executionCost": "190",
            "totalCost": "143190"
        },
        "external": {
            "NFTExist(address,address,uint256)": "infinite"
        }
    }
}